:020000040800F2
:100000007006002005010008931E0008DD1D000891
:10001000911E0008AD0E00087720000800000000C7
:10002000000000000000000000000000971E000813
:10003000C90E000800000000951E0008991E000867
:100040001F0100081F0100081F0100081F01000810
:100050001F0100081F0100081F0100081F01000800
:100060001F0100081F0100081F0100081F010008F0
:100070001F0100081F010008B10E0008BD0E000896
:100080001F0100081F0100081F0100081F010008D0
:100090001F0100081F0100081F0100081F010008C0
:1000A0001F0100081F0100081F0100081F010008B0
:1000B0001F0100081F0100081F0100081F010008A0
:1000C0001F0100081F0100081F0100081F01000890
:1000D0001F0100081F0100081F0100081F01000880
:1000E0001F0100081F0100081F010008DFF810D0E1
:1000F00000F07AF80048004749250008AFF3008077
:10010000700600200648804706480047FEE7FEE7E5
:10011000FEE7FEE7FEE7FEE7FEE7FEE7FEE7FEE7B7
:10012000FB1E0008ED000008202A04DB203A21FA1B
:1001300002F00021704721FA02F3D040C2F1200200
:100140009140084319467047D2B201E000F8012BF4
:10015000491EFBD270470022F6E710B513460A4647
:1001600004461946FFF7F0FF204610BD30B504469F
:100170000020034600E05B1C934203D2E05CCD5CB0
:10018000401BF8D030BD2DE9F05F054600209246B7
:100190009B4688460646814640241BE02846414649
:1001A00047462246FFF7C0FF53465A46C01A9141C0
:1001B00010D311461846224600F028F82D1A67EB96
:1001C00001084F4622460120002100F01FF817EBDE
:1001D00000094E41201EA4F10104DFDC48463146EF
:1001E0002A464346BDE8F09F064C074D06E0E0680E
:1001F00040F0010394E8070098471034AC42F6D36E
:10020000FFF778FF7826000898260008202A04DBEC
:10021000203A00FA02F1002070479140C2F1200319
:1002200020FA03F3194390407047000070B54FF077
:10023000FF320023094D0CE0C45C62400024D60765
:1002400002D085EA520200E05208641C082CF6D362
:100250005B1C8B42F0D3D04370BD00002083B8ED0F
:1002600000280DD0084A016891420AD1416841B185
:10027000B1F5404F05D8806818B1401C01D001206D
:1002800070470020704700004C42574670B586B05A
:1002900000240E46054600940194029403940494AD
:1002A00001F038F8B00ACDE9025004A9009468467C
:1002B00000F092FF044600F0E3FF06B0204670BD58
:1002C0002DE9F04115460E0080464FF0000704D09E
:1002D0001DB101F01FF8002416E00120BDE8F081F7
:1002E000305D611CA94204D23119497840EA0122EB
:1002F00001E040F47F4208EB04010023012000F0FC
:10030000C9FF070002D1A41CAC42E9D300F0B8FF3A
:100310003846E3E703488068422801D00248704726
:100320000248704744020020004000080000010815
:10033000412801D0422801D0422070474120704717
:100340004FF44040704700000448017B04484129B5
:1003500002D0422900D10348704700004402002027
:1003600000400008000001082DE9F04FDFF89081FF
:10037000624F0025DFF88C9185B0012608F5927454
:1003800070B16068042804D001287CD00328FCD018
:1003900006E0A06920B96069012807D000284CD088
:1003A00000F04CFC00286FD057A0A4E0FFF7B2FF8C
:1003B0008346207AFFF7C4FF824659A0A16801F066
:1003C0005BFE5146584600F06DFBD0B104F11C00B5
:1003D000656107C8CDE901500095CDE90312237C82
:1003E000227B217A042000F0D1FBD9F800000168BB
:1003F000C9434906FBD45146584600F067FB50A05C
:1004000079E059A0A16801F037FE2069A060C0B270
:10041000FFF78EFFE060C4E9055604F11C010DF101
:1004200008090EC989E80E00CDE900560246237C72
:10043000217A032000F0AAFB39E053A0216901F0E2
:100440001BFE2069A060C0B2FFF772FFE060A168E8
:1004500010340DF1080A62C494E80C108AE80C10FC
:10046000CDE90056CBB20246C9B202201C3C00F0D6
:100470008DFBFFF74FFF8346207AFFF761FF82462F
:100480000146584601E010E017E000F00BFB50B1C8
:1004900049A0A16801F0F0FDD9F800000168C94346
:1004A0004906FBD41FE04EA025E059A023E03D7093
:1004B00088F8006005B0BDE8F08FFFF72BFF83469A
:1004C000207AFFF73DFF82460146584600F0EAFADF
:1004D00080B15DA0A16801F0CFFDD9F800000168EE
:1004E000C9434906FBD405B051465846BDE8F04F14
:1004F00000F0ECBA5DA001F0BFFDD8E710000020CD
:10050000200100202C000020456E7465722075705B
:1005100064617465206D6F64652E0D0A0000000033
:1005200054657374696E67206E6577206170702002
:10053000696E20736C6F742025632E2E2E0D0A00B9
:1005400054657374206A756D70206661696C6564AA
:100550002C206261636B20746F20626F6F746C6F0C
:10056000616465722E0D0A005465737420617070A9
:1005700020696E76616C696420696E20736C6F749B
:100580002025632E0D0A00004E65772061707020D3
:100590006E6F7420636F6E6669726D65642C207275
:1005A0006F6C6C6261636B20746F20736C6F74206E
:1005B00025632E0D0A000000526F6C6C6261636B44
:1005C00020646F6E652E204A756D70206261636BCA
:1005D00020746F20736C6F742025632E0D0A000049
:1005E000526F6C6C6261636B20736C6F7420696E08
:1005F00076616C69642C207374617920696E206265
:100600006F6F746C6F616465722E0D0A00000000DC
:100610004D657461207361797320757064617465D0
:10062000206E6F742066696E69736865642C207330
:1006300074617920696E20626F6F746C6F6164659C
:10064000722E0D0A000000004170702076616C6906
:100650006420696E20736C6F742025632C206A758A
:100660006D70206E6F772E2E2E0D0A004E6F207645
:10067000616C69642061707020666F756E642069BA
:100680006E2061637469766520736C6F742C2073BF
:1006900074617920696E20626F6F746C6F6164653C
:1006A000722E0D0A000000002DE9F0411D4D1E4E76
:1006B0006A69B2B14FF480701446824200D9044690
:1006C00021461AA001F0D8FC17492431052734B17E
:1006D000A2B241F288331F4801F0D8FA28B11EA017
:1006E0000CE003203070BDE8F0810F496C602246B9
:1006F0002431E868FFF7E4FD20B11DA001F0BCFC47
:100700003770F0E7E96868680144E96069690A1AC6
:100710006A61716801447160BDE8F0411AA001F09E
:10072000ABBC000010000020200100205265637661
:10073000206368756E6B2E206E6565643D256C7553
:100740002C2072656D61696E696E673D256C750D53
:100750000A0000002C00002052656376206461745A
:10076000612074696D656F75742E0D0A00000000BC
:100770004368756E6B207772697465206661696C79
:1007800065642E0D0A0000004368756E6B20777259
:10079000697465204F4B2E20726563765F73697AAA
:1007A000653D256C752C2072656D61696E696E679B
:1007B0003D256C750D0A0000F0B585B0FFF7C4FD4E
:1007C000214F3969FFF732FD204DB860014620A066
:1007D000EA6801F051FCE868B968002605F59274F2
:1007E00088421BD127A001F047FC217A207B2161A0
:1007F000A060FFF79DFD0121E060C4E90516D5E981
:1008000003233F698DE8C200CDE903230246237C20
:10081000217A042000F0BAF9042011E01CA001F0B4
:100820002BFCD5E903013A69CDE901620096CDE9D7
:100830000301237C227B217A032000F0A7F9052005
:10084000287005B0F0BD000010000020200100203D
:1008500056657269667920435243207374616765F7
:100860002E2063616C633D30782530386C582C2025
:1008700065787065637465643D30782530386C58F0
:100880000D0A0000435243204F4B2E0D0A0000007A
:10089000435243206D69736D617463682E0D0A00C5
:1008A0002DE9F04786B03AA001F0E6FB404900256B
:1008B00041F288330D604D608D6010223D48CD605F
:1008C00001F0E4F93A4C0527143C08B13AA03BE0AA
:1008D0003748C168009190E80E003EA001F0CCFBC3
:1008E0003348FFF7BDFC00284FD048A001F0C4FBFF
:1008F000DFF8BCA0A8460AF58879DAF80410A160F0
:10090000DAF80820E260DAF80C006560434D2061F7
:100910004E462961696199F80800FFF709FDF0600A
:10092000FFF712FDC5E9028002463DA0F16801F023
:10093000A3FB307BFFF704FD0646FFF705FD3146BC
:10094000FFF7A4FC30B140A001F096FB277006B081
:10095000BDE8F0874E46D9F80C1041A0EA6801F0D6
:100960008BFBDAE90212DAF80430CDE90183CDF825
:100970000080CDE90312307A327BC3B2C1B20120CC
:1009800000F004F902202070E1E741A0DCE700005C
:1009900057616974696E67206669726D7761726507
:1009A000206865616465722E2E2E0D0A000000001D
:1009B000340100202C0000205265636569766520B3
:1009C0006865616465722074696D656F75742E0D5C
:1009D0000A0000004865616465723A206D616769CC
:1009E000633D30782530386C582C2073697A653D2A
:1009F000256C752C206372633D30782530386C5837
:100A00002C207665723D256C750D0A004865616481
:100A10006572204F4B2E0D0A0000000010000020D0
:100A200054617267657420736C6F743D25632C206C
:100A300077726974655F616464723D30782530381F
:100A40006C580D0A00000000466C617368206572E6
:100A5000617365206661696C65642E0D0A00000093
:100A6000466C617368206572617365204F4B2E2060
:100A70007461726765745F736C6F743D25632C20BD
:100A8000616464723D30782530386C580D0A00007E
:100A900048656164657220696E76616C69642E0DCB
:100AA0000A00000003684268A3F10053B3F5A04FA9
:100AB00007D8531C05D022B1824202D30844904289
:100AC00001D8002070470120704700002DE9F04157
:100AD0000546FFF7E7FFE8B12F686E6872B60020A1
:100AE0004FF0E02420616061A06100F053FB6017CB
:100AF000C4F88001C4F88401C4F88002C4F88402F8
:100B00000748056087F30888BFF34F8FBFF36F8FE7
:100B1000B047FEE72946BDE8F04102A001F0ACBABB
:100B200008ED00E0496E76616C69642061707020A8
:100B3000696E20736C6F743A20616464723D307822
:100B40002530386C580D0A00002818D00D490A6865
:100B500002604B6843608B688360CB68C3600B693D
:100B600003614B6943618B698361CB69C3610B6A24
:100B70000362496A41620448824201D00020704702
:100B80000120704700C001084154454D2DE9FF4F39
:100B900085B0054612A8002490E8C0078B46009453
:100BA000019402940394049400F0B4FB00941E4C4E
:100BB0000120CDE9024004A9684600F00DFB1B4965
:100BC000204600F035F82946201D00F031F816487F
:100BD0005946083000F02CF8134807990C3000F003
:100BE00027F811480899103000F022F80E483146D5
:100BF000143000F01DF80C483946183000F018F891
:100C0000094841461C3000F013F807484946203097
:100C100000F00EF804485146243000F009F800F0C6
:100C20002FFB09B0BDE8F08F00C001084154454DCD
:100C30000A4600230146022000F02CBB1CB5002010
:100C4000009001900BA001F017FA4FF4FA6306220E
:100C50006946104801F01AF828B906220EA1684624
:100C6000FFF784FA08B100201CBD0DA001F004FAC2
:100C700001201CBD507265737320757064617465CA
:100C800020636F6D6D616E6420696E2032732E2E4D
:100C90002E0D0A002C000020757064617465000040
:100CA00055706461746520636F6D6D616E6420645E
:100CB000657465637465642E0D0A0000002805D014
:100CC0000021017041608160C160016170470000D6
:100CD00086B03B480025282145618561C5610562D4
:100CE00000F59270FFF737FA3548FFF7E7FF35A0B8
:100CF00001F0C2F94FF000613AA001F0BDF93E48A1
:100D0000FFF722FF3C4C07004FF0010610D004F122
:100D100018000DF1080C0FC88CE80F00D4E904018D
:100D2000CDE90001211D35480EC901F0A5F90AE001
:100D300033A001F0A1F941204221C4E9020104F1EC
:100D4000100181E86100FFF7E5FA014634A001F0E7
:100D500093F94FF47A7000F02DFA3846FFF704FB50
:100D6000A046174F354C3878062824D2DFE800F02B
:100D70001D0306090C14FFF793FDF4E7FFF794FC3D
:100D8000F1E7FFF719FDEEE72D48D8F8081001F05C
:100D900073F925703D70E6E72AA001F06DF92EA0E9
:100DA00001F06AF925703E70DDE7207818B935A0AA
:100DB00001F062F92670642000F0FCF9D3E700002E
:100DC000200100203D3D3D3D20426F6F746C6F61FE
:100DD000646572205374617274203D3D3D3D0D0A7F
:100DE00000000000424C2073746172743A20307825
:100DF0002530386C580D0A004402002004260008F3
:100E00004D6574613A20656D7074792C2064656657
:100E100061756C7420736C6F7420410D0A000000C2
:100E20004163746976652061707020616464723A10
:100E30002030782530386C580D0A00001000002052
:100E4000B8250008426F6F746C6F6164657220652D
:100E500072726F722E0D0A0055706461746520669F
:100E600061696C65642E2057616974696E672066DC
:100E700069726D77617265206865616465722E2E96
:100E80002E0D0A00426F6F746C6F61646572206989
:100E9000646C652E20526573657420746F207275C2
:100EA0006E206170702E0D0A00000000FEE7000049
:100EB000014800F097B80000B8000020014800F099
:100EC00091B8000074000020704772B6FEE7000081
:100ED00006490020C8610648016941F0040101612A
:100EE000016941F0400101617047000000010020EC
:100EF00000200240064A0021D16106490A6942F0F9
:100F000002020A614861086940F0400008617047C8
:100F10000001002000200240044B0022DA61044A54
:100F2000136943F001031361018070470001002041
:100F30000020024014480022C168CB06134904D5A2
:100F4000CA6942F00202CA611022C3685B0705D574
:100F5000CB6943F00103CB6142F00402C369DB07B4
:100F600007D0CB6943F00403CB61C16921F00101D3
:100F7000C161A2F58071013901D0C2607047C169B9
:100F800021F00101C16170470020024000010020F2
:100F900070B5054600F0C2FA0646114C09E0681C1F
:100FA00007D025B100F0BAFA801BA84201D903206E
:100FB00070BDE068C007F2D1E068800601D520204E
:100FC000E060E068C00605D4E069C00702D1E068CF
:100FD000400703D5FFF7AEFF012070BD002070BDB4
:100FE000002002402DE9F05FC16B0C6801680B68BE
:100FF000D0F840C0042202FA0CF2494DDFF824A1D7
:10100000494E4A4FDFF828B1DFF828E122422CD0C0
:101010005A072AD50A68920603D40A6822F0040205
:101020000A600168A94201D1042219E0514501D1A9
:10103000402215E0B14202D14FF4806210E0B94283
:1010400002D14FF480420BE0594502D14FF4802287
:1010500006E0714502D14FF4800201E04FF080625A
:101060002F4908394A60C16A3BE04FF0020808FA8C
:101070000CF818EA040F4FF000094FF0010235D0C8
:101080005FEA837832D50B689B0605D40B6823F0A2
:101090000A030B6080F821200168A94201D10222D5
:1010A00019E0514501D1202215E0B14202D14FF49F
:1010B000007210E0B94202D14FF400520BE05945E2
:1010C00002D14FF4003206E0714502D14FF4001214
:1010D00001E04FF00072124908394A6080F8209010
:1010E000816A00291AD0BDE8F05F0847082505FA93
:1010F0000CF5254212D01B0710D50B6823F00E0308
:101100000B6090F84010C36B02FA01F159608263E2
:1011100080F8212080F82090016BE2E7BDE8F09F85
:10112000080002401C00024030000240440002401F
:10113000580002406C00024030B528B308C813497B
:1011400014221944B1FBF2F18900C1631049816393
:10115000022141771A6843F6F0718A43D0E90014FE
:101160002143D0E902452C432143046921434469CA
:101170002143846921431143196000214163012205
:1011800042770177084630BD012030BDF8FFFDBF32
:1011900000000240064810B54FF0FF310161002207
:1011A0000261C160C26000F0F9F9002010BD0000CA
:1011B0000010024070B5044600F0B0F90546601C0E
:1011C00002D004480078044400F0A8F9401BA04273
:1011D000FAD370BD000000202DE9F04705462648EF
:1011E0000F460126017E01290FD00121814601769B
:1011F0002868DFF888804CF25034022808D0A246D4
:101200002046FFF7C5FEA8B131E00220BDE8F08717
:101210002046FFF7BDFE08BB0120FFF759FE204620
:10122000FFF7B6FED8F81010064621F00401C8F802
:1012300010101CE04FF0FF303860AC6811E0204621
:10124000FFF758FE5046FFF7A3FED8F8101006002F
:1012500021F00201C8F8101001D03C6007E004F54D
:101260008064D5E9020100EB8120A042E7D800218B
:1012700089F818103046C9E700010020002002401C
:101280000348016941F080010161002070470000BE
:10129000002002402DE9F05F07461C4888460024E4
:1012A000017E15461E46012909D00121814601769D
:1012B0004CF2503A5046FFF76BFE18B122E0022084
:1012C000BDE8F09F012F02D0022F00D00427D346A3
:1012D000DFF83CA0220128463146FEF725FF81B207
:1012E00008EB4400FFF718FE5846FFF751FEDAF806
:1012F000102022F00102CAF8102018B9641CE4B2D0
:10130000BC42E7D3002289F81820D9E70001002069
:1013100000200240064900200A69120607D5054A46
:101320004A60054A4A600969090600D501207047EC
:101330000020024023016745AB89EFCD2DE9F84F2E
:10134000DFF8B8910024A9F1040B23460F2709F117
:10135000040AABF1040EC9E00125A5402A40AA42C7
:101360007DD1674ED1F804C0ACEB0608B44532D04D
:1013700014DCBCF1030F3AD009DCBCF1000F2AD019
:10138000BCF1010F1CD0BCF1020F31D11DE0BCF14A
:10139000110F17D0BCF1120F2AD119E0B8F5881F30
:1013A00019D006DCB8F5803F15D0B8F5801F1FD1E5
:1013B00011E0B8F5001F0ED0B8F5041F18D10AE0EF
:1013C000CB6815E0CB681B1D12E0CB6808330FE03B
:1013D000CB680C330CE08B682BB1012B4FF008036A
:1013E00003D0456104E0042302E0056100E000232E
:1013F000FF2A01D8064601E000F104064FEA840501
:1014000001D9A5F12005D6F8008007FA05FC28EAE5
:101410000C0803FA05F548EA0508C6F800804D688F
:10142000ED0062D5374DAE6946F00106AE61AD699B
:1014300024F0030605F001050095334D06EB050C7D
:10144000DCF80850A607360F07FA06F825EA080563
:10145000DFF8B880404503D14FF0000817E044E0C2
:10146000DFF8AC80404502D14FF001080FE0DFF813
:10147000A480404502D14FF0020808E0DFF89880D0
:10148000404502D14FF0030801E04FF0040808FA8C
:1014900006F848EA0508CCF808804D68D9F80060DD
:1014A000ED024D4601D5164300E096432E604D688F
:1014B000DAF80060AD02554601D5164300E09643C8
:1014C0002E604D68DBF80060AD035D4601D5164324
:1014D00000E096432E604D68DEF80060ED0375462F
:1014E00001D5164300E096432E60641C0D682A4621
:1014F000E5407FF431AFBDE8F88F000008040140FB
:1015000000001110001002400000014000080140DE
:10151000000C0140001001400014014001488068A7
:1015200070470000000000200248816802781144E2
:101530008160704700000020074810B5016841F045
:1015400010010160032000F077F80F2000F006F88A
:1015500000F026F8002010BD0020024070B50D4DAF
:1015600004464FF47A712878B1FBF0F00A49096813
:10157000B1FBF0F000F0DEFA48B9102C07D20022DF
:101580002146501E00F038F800206C6070BD01202C
:1015900070BD0000000000200C000020704700001B
:1015A0000C4808B5816941F001018161816901F050
:1015B00001010091C16941F08051C161C06900F031
:1015C000805000900448416821F0E06141F00071D2
:1015D000416008BD0010024000000140002809DB06
:1015E00000F01F02012191404009800000F1E0203D
:1015F000C0F8001170470000F0B40E4B1B680C4699
:10160000C3F30223C3F10705042D00D90425191DD6
:10161000072901D2002300E0DB1E012606FA05F1AE
:10162000491E214099409E40761E16403143F0BC31
:1016300000F032BD0CED00E0064900F0070208683A
:101640004FF6FF03184040EA0220034A10430860A7
:10165000704700000CED00E00000FA052DE9F047AE
:101660000F46050061D0434E306800F00700B842D5
:1016700009D2306820F0070038433060306800F04D
:101680000700B84251D128683B4C810712D540076A
:1016900003D5606840F4E06060602878000703D5F7
:1016A000606840F4605060606068A96820F0F000F5
:1016B000084360602878C00728D06868012810D0E7
:1016C0002168022810D0890700292EDA616821F0EC
:1016D000030101436160FFF721FF804641F2883931
:1016E0000DE021688903EFE78901EDE7FFF716FFB9
:1016F000A0EB0801494502D90320BDE8F0876068E6
:10170000696800F00C00B0EB810FEFD1306800F099
:101710000700B8420BD9306820F00700384330602A
:10172000306800F00700B84201D00120E5E72878D2
:10173000400705D56068E96820F4E0600843606010
:101740002878000706D56068296920F4605040EACF
:10175000C100606000F038F86168084AC1F3031105
:10176000515CC8400649086006480068FFF7F6FE6D
:101770000020C2E700200240001002409E25000821
:101780000C00002004000020044805490068496856
:10179000044AC1F30221515CC84070470C0000208C
:1017A00000100240AE250008044805490068496859
:1017B000044AC1F3C221515CC84070470C000020AC
:1017C00000100240AE2500080E4A51680E4801F094
:1017D0000C03042B11D0082B0FD10C48C1F3834309
:1017E000C903C05C0AD55168084AC1F34041921E42
:1017F000515C054A5043B0FBF1F07047044948433F
:10180000704700000010024000127A008E25000888
:1018100000093D002DE9F84F040070D02078C04D3C
:10182000C00749D06868C0F38100012807D0686804
:10183000C0F38100022809D16868C00306D5286872
:10184000800339D560680028E7D035E06068B0F5DE
:10185000803F0BD010B1B0F5A02F11D0286820F434
:1018600080302860286820F4802002E0286840F456
:1018700080302860606890B1FFF750FE06460AE0AD
:10188000286840F480202860F0E700BFFFF746FE9C
:10189000801B642873D828688003F7D50CE0FFF715
:1018A0003DFE064605E000BFFFF738FE801B6428BA
:1018B000F0D828688003F7D420789A4E80074FF03C
:1018C00001094FF0000839D5686810F00C0F07D0F7
:1018D0006868C0F38100022809D16868C00306D493
:1018E0002868800714D52069012808D110E02069F4
:1018F000B0B1C6F80090FFF711FE074605E00AE117
:10190000FFF70CFEC01B0228C4D828688007F7D553
:101910002868616920F0F80040EAC10028600DE005
:10192000C6F80080FFF7FAFD074604E0FFF7F6FD72
:10193000C01B022823D828688007F7D42078000726
:101940002CD57948A169D9B1C0F80090FFF7E6FD20
:10195000074604E0FFF7E2FDC01B02280FD8686AC3
:101960008007F7D571484FF4FA510068B0FBF1F0E9
:10197000009000BF0098411E0091FAD20EE080E076
:10198000C0F80080FFF7CAFD074604E0FFF7C6FD78
:10199000C01B022875D8686A8007F7D420784007F2
:1019A00060D5E8690027C00008D4E86940F080509D
:1019B000E861E869012700F0805000905C48016808
:1019C000C90513D40168834641F480710160FFF7B3
:1019D000A5FD824606E000BFFFF7A0FDA0EB0A00D0
:1019E00064284ED8DBF80000C005F5D5E068012872
:1019F0000AD008B1052813D0286A20F00100286217
:101A0000286A20F0040002E0286A40F00100286201
:101A1000E06841F2883B98B1FFF780FD82460BE019
:101A2000286A40F004002862EEE700BFFFF776FD69
:101A3000A0EB0A0159455AD8286A8007F6D50CE070
:101A4000FFF76CFD824605E0FFF768FDA0EB0A0199
:101A500059454CD8286A8007F6D41FB1E86920F0B0
:101A60008050E861E06988B36968C1F381010229A7
:101A700044D00228C6F8608004D0FFF74FFD04462A
:101A800038E034E0FFF74AFD074604E0FFF746FD83
:101A9000C01B02282BD828688001F7D4206AB0F533
:101AA000803F05D16868A16820F400300843686071
:101AB000D4E908010843696821F474110843686097
:101AC000C6F86090FFF72AFD044606E025E000BF57
:101AD000FFF724FD001B022809D828688001F7D5EC
:101AE0001BE000BFFFF71AFD001B022802D90320EC
:101AF000BDE8F88F28688001F4D40EE00128F7D003
:101B00006868226A00F48031914204D1616A00F46D
:101B10007010884201D00120EAE70020E8E70000C9
:101B20000010024000004242800442420C000020AB
:101B30000070004010B5401EB0F1807F01D301203D
:101B400010BD4FF0E02460610F21601700F0A4FA8F
:101B50000020A06107202061002010BD70B50400A6
:101B600004D094F84100002510B106E0012070BDBA
:101B700084F84050204600F023F8242084F84100E7
:101B80002068C16821F40051C160204600F0DEF9F0
:101B90002068016921F4904101612068416921F0C8
:101BA0002A0141612068C16841F40051C160656447
:101BB000202084F8410084F842006563002070BD55
:101BC000F0B585B000240646009401940294039475
:101BD0000068294988424CD12848816941F48041F4
:101BE0008161816901F480410491816941F00401BE
:101BF00081618069224D00F0040004904FF4007070
:101C00000090022001900320039069462846FFF7C8
:101C100095FB2815CDE90004694628460294FFF794
:101C20008DFB194D17488027C5E90004C5E9024717
:101C30002C616C61AC612846EC61FFF77DFA08B15C
:101C4000FFF743F9F5636E620F4D0E4844351438C3
:101C500001C5102091C50C4845F8104944306C610D
:101C6000AC61EC61FFF768FA08B1FFF72EF9B563D4
:101C70006E6205B0F0BD0000003801400010024067
:101C80000008014058000240740000202DE9F84F80
:101C9000044690F842009A4616460D46202802D087
:101CA0000220BDE8F88FB5B1AEB1002060642221FA
:101CB00084F842102063FFF731FCA6858146E68553
:101CC000A0684FF480582027404501D1206920B1F9
:101CD0002E46002529E00120E3E7002625E04B46BB
:101CE000002220212046CDF800A000F08BF918B189
:101CF00084F842700320D4E726B1A06840451AD08A
:101D000038B108E020684068C0F3080025F8020BED
:101D100008E0206978B12068406800F07F0000BFCB
:101D200006F8010BE08D401EE085E08D0028D6D13D
:101D300084F84270B5E720684068F1E72DE9F84380
:101D4000044690F84100984616460D46202802D0D9
:101D50000220BDE8F88385B17EB1002060642120B7
:101D600084F84100FFF7DAFBA6848146E684A06888
:101D70002027B0F5805F02D003E00120E9E7206969
:101D800010B12E4600250EE000260CE080212046F2
:101D900000F038F9A8B9C6B116F8010B21684860FF
:101DA000E08C401EE084E08C4B464FF00002CDF802
:101DB00000800028EAD14FF04001204600F022F9CF
:101DC00040B184F841700320C3E735F8020BC0F33B
:101DD0000800E3E784F841700020BAE7FEE700005E
:101DE0000D4808B5416941F0010141614069002297
:101DF00000F00100009005210E20FFF7FDFB0E20F2
:101E0000FFF7ECFB002205210F20FFF7F5FBBDE8F3
:101E100008400F20FFF7E2BB001002400D4808B554
:101E2000816941F010018161816901F01001009127
:101E3000816941F020018161816901F020010091F7
:101E4000816941F004018161806900F00400009023
:101E500008BD0000001002400C4810B50A4901609E
:101E60004FF4E1314160002181600C22C160C0E982
:101E700004128161C161FFF771FE002803D0BDE843
:101E80001040FFF722B810BD003801402C000020A0
:101E9000FEE7FEE770477047FFF746BB30B58FB0EF
:101EA00028216846FEF757F914210AA8FEF753F9CE
:101EB00001210804CDE900100024029402250491B8
:101EC000CDE907504FF4E01009906846FFF7A2FCF7
:101ED00008B172B6FEE70F20CDE90A054FF4806025
:101EE000CDE90C4002210AA80E94FFF7B7FB0028A9
:101EF00001D072B6FEE70FB030BD704701680C31FB
:101F000051E8002F22F4907241E80023002BF5D114
:101F10000168143151E8002F22F0010241E800234A
:101F2000002BF5D1016B012909D101680C3151E871
:101F3000002F22F0100241E80023002BF5D12021D0
:101F400080F84210002101637047000070B504461C
:101F500000680169E26821F440511143016121697F
:101F6000A0680843616908432168CA6841F20C63AC
:101F70009A430243CA6020684169A26921F4407112
:101F8000114341611E492068884202D1FFF70CFCD1
:101F900001E0FFF7F9FB00EBC00101EB0012606804
:101FA00064218000B2FBF0F3B3FBF1F36FF018068D
:101FB0007343B2FBF0F5B2FBF0F605EB8305322379
:101FC00003EB0515B5FBF1F5B6FBF1F605F0F005F1
:101FD00005EB0615B2FBF0F6B2FBF0F0B0FBF1F04A
:101FE0006FF01802504306EB800003EB0010B0FBCB
:101FF000F1F0216800F00F002844886070BD0000F7
:10200000003801402DE9F843984617460D4604462E
:10201000089E24E0701C22D0FFF780FAA0EB080095
:10202000B0421AD8CEB12068C168490717D5802DB3
:1020300015D0402D13D00168C94309070FD401689A
:102040000025406800902046FFF758FF0820606494
:1020500084F840500120BDE8F8830320FBE72068A6
:10206000006835EA000004D00020B842D2D0002039
:10207000F1E70120F9E7FEE70FB4054B10B503A91E
:10208000044A029800F028F810BC5DF814FB000028
:1020900031250008280000200907090E002804DB6C
:1020A00000F1E02080F80014704700F00F0000F10C
:1020B000E02080F8141D704702E008C8121F08C114
:1020C000002AFAD170477047002001E001C1121FB9
:1020D000002AFBD1704700002DE9FF4F8DB00F465D
:1020E0000546002606E025280BD0DDE90F129047B3
:1020F0006D1C761C28780028F5D111B03046BDE85B
:10210000F08F0024A246A1460122E94900E00443E1
:1021100015F8013F203B02FA03F00842F7D1287876
:102120002A2810D06FF02F022878A0F13001092959
:1021300014D80AEB8A0102EB410144F0020400EBDF
:10214000010A6D1CF0E701CF5FEA000A03D544F4F1
:102150000054CAF1000A44F002046D1C28782E28AD
:1021600017D115F8010F44F004042A280ED06FF09F
:102170002F022878A0F1300109290AD809EB89013A
:1021800002EB410100EB01096D1CF2E757F8049BDB
:102190006D1C28786C280FD006DC4C2817D06828D6
:1021A0000DD06A2814D104E0742810D07A280FD1F9
:1021B0000DE044F400140AE044F4801401E044F417
:1021C00040146978814202D104F580146D1C6D1CA5
:1021D00028786E281ED00CDC632830D004DC002860
:1021E0008BD0582811D19FE0642867D069280CD182
:1021F00064E073282DD004DC6F2872D0702804D1DD
:1022000094E075286ED078286DD0DDE90F129047E4
:10221000761C4BE1C4F30250022806D0032809D0F3
:10222000042801CF09D0066040E101CFF117C0E9D1
:1022300000613BE101CF068038E1067036E117F816
:10224000040B8DF8000000208DF80100EB46012002
:1022500003E057F804BB4FF0FF3061074FF0000177
:1022600002D40DE008F10101884649450FDA8045A6
:10227000F8DB1BF808100029F4D108E008F101018F
:1022800088468142FADB1BF808100029F6D1DDE907
:102290000F23AAEB08008146214600F031F93044B3
:1022A00000EB080604E0DDE90F121BF8010B904774
:1022B000B8F10108F7D221464846F2E00A21C4F3FA
:1022C00002524FF0000B0891022A04D001CFC1172F
:1022D000032A09D00AE0FF1D27F00707F7E80201EB
:1022E00008E02CE01EE01FE000B2C117042A01D173
:1022F00040B2C117021E71F1000206DA0023D0EBD2
:10230000030063EB01012D2202E0220504D52B22FC
:102310008DF82420012203E0E20701D02022F7E714
:10232000904653E00A210BE0102109E010214FF004
:10233000000B44F004044FF00809089103E0082161
:102340004FF0000B0891C4F30252022A04D001CFCF
:102350000021032A06D006E0FF1D27F00707F7E853
:10236000020103E080B2042A00D1C0B24FF000089D
:1023700022072BD52A78702A07D0DDF820C08CF0F0
:10238000100C5CEA0B0C05D00EE040228DF82420E6
:10239000012208E050EA010306D030238DF82430F2
:1023A0008DF8252002229046089B83F0080353EA0B
:1023B0000B030BD150EA010201D1620706D530228E
:1023C0008DF824204FF00108A9F101092A78582A34
:1023D00004D038A20B9208AA0A920BE03AA2F9E7BD
:1023E0005B46089AFDF7CFFE0B9B9B5C0A9A521E38
:1023F0000A92137050EA0102F2D10A98ADEB000084
:1024000000F1200B600702D524F4803401E04FF086
:102410000109D94502DDA9EB0B0000E0002000EB2B
:102420000B0141440890AAEB010AE00306D4DDE960
:102430000F232146504600F063F806444FF0000990
:1024400008E009A911F80900DDE90F12904709F128
:102450000109761CC145F4DBE0030CD5DDE90F234F
:102460002146504600F04CF8064404E0DDE90F1226
:1024700030209047761C0899481E08900029F5DC0A
:1024800008E00A980A990078491C0A91DDE90F12C0
:102490009047761CBBF10001ABF1010BF1DC21464A
:1024A0005046DDE90F2300F019F806446D1C21E6C3
:1024B000092801003031323334353637383961621A
:1024C00063646566000000003031323334353637DE
:1024D0003839414243444546000000002DE9F041AF
:1024E000044600251E461746880404D405E03946F4
:1024F0002020B0476D1C641EF9D52846BDE8F08148
:102500002DE9F041044600251E469046C80301D53A
:10251000302700E02027880404D505E041463846EE
:10252000B0476D1C641EF9D52846BDE8F081000057
:1025300013B54FF0FF33012269460248FFF7FEFB57
:1025400000981CBD2C000020FEF7F6FFFFF7A6FC4C
:10255000FFF764FCFFF744FCFFF77EFCFEF7B8FBD7
:102560004FF47A742046FEF725FE02A0FFF784FDA3
:10257000F8E70000426F6F746C6F616465722069E8
:10258000646C652E2E2E0D0A00000000010202036D
:102590000405060708090A0B0C0D0E0F10100000A9
:1025A0000000000000000102030406070809000003
:1025B000000001020304000055706461746520731B
:1025C0007563636573732E20416374697665207348
:1025D0006C6F7420737769746368656420746F200E
:1025E00025632E20596F75206D61792072657365A2
:1025F0007420616E642072756E206170702E0D0AF9
:10260000000000004D6574613A2073746174757345
:102610003D256C752C206163746976653D25632CBE
:10262000207461726765743D25632C20726F6C6C39
:102630006261636B3D25632C2070656E64696E6713
:102640003D256C752C20636F6E6669726D65643D07
:10265000256C752C2073697A653D256C752C20637B
:1026600072633D30782530386C582C207665723D89
:10267000256C750D0A000000982600080000002057
:102680002C000000B8200008C42600082C00002000
:1026900044060000C82000080100000010000000EF
:1026A0000000000000127A0000000000000000009E
:1026B000000000000000000000000000000000001A
:0426C0000000000016
:04000005080000ED02
:00000001FF
