:020000040800F2
:100000000805002005010008F71400084114000845
:10001000F514000871050008DB1600080000000058
:10002000000000000000000000000000FB140008B9
:100030008D05000800000000F9140008FD140008F8
:100040001F0100081F0100081F0100081F01000810
:100050001F0100081F0100081F0100081F01000800
:100060001F0100081F0100081F0100081F010008F0
:100070001F0100081F010008750500088105000820
:100080001F0100081F0100081F0100081F010008D0
:100090001F0100081F0100081F0100081F010008C0
:1000A0001F0100081F0100081F0100081F010008B0
:1000B0001F0100081F0100081F0100081F010008A0
:1000C0001F0100081F0100081F0100081F01000890
:1000D0001F0100081F0100081F0100081F01000880
:1000E0001F0100081F0100081F010008DFF810D0E1
:1000F00000F06EF800480047AD1B0008AFF3008029
:10010000080500200648804706480047FEE7FEE74E
:10011000FEE7FEE7FEE7FEE7FEE7FEE7FEE7FEE7B7
:100120005F150008ED000008202A04DB203A21FAC0
:1001300002F00021704721FA02F3D040C2F1200200
:100140009140084319467047D2B201E000F8012BF4
:10015000491EFBD270470022F6E710B513460A4647
:1001600004461946FFF7F0FF204610BD2DE9F05F69
:100170000546002092469B46884606468146402416
:100180001BE02846414647462246FFF7CDFF53462F
:100190005A46C01A914110D311461846224600F023
:1001A00029F82D1A67EB01084F462246012000214D
:1001B00000F020F817EB00094E41201EA4F10104C5
:1001C000DFDC484631462A464346BDE8F09F000042
:1001D000064C074D06E0E06840F0010394E8070094
:1001E00098471034AC42F6D3FFF784FF1C1C00087C
:1001F0003C1C0008202A04DB203A00FA02F100200F
:1002000070479140C2F1200320FA03F31943904054
:100210007047000000280DD0084A016891420AD1B9
:10022000416841B1B1F5D03F05D8806818B1401C94
:1002300001D0012070470020704700004C42574613
:1002400001684068A1F10051B1F5A04F07D8411CE9
:1002500005D020B104490844B0F5D03F01D90020B1
:10026000704701207047000000C0FFF770B50446DA
:10027000FFF7E6FF002825D02668656872B60020E3
:100280004FF0E0210861486188610146421E880004
:1002900000F1E020C0F88021C0F88022491C082924
:1002A000F5D3094800F0A8FF00F04EFD00F078FA01
:1002B0000648046086F30888BFF34F8FBFF36F8F43
:1002C000A847FEE770BD00001400002008ED00E024
:1002D00001207047002805D0002101704160816035
:1002E000C1600161704700003C480026466186619C
:1002F000C6610662FFF7EEFF39A001F0EFF94FF09B
:1003000000613FA001F0EAF9424D43A0294601F007
:10031000E5F94FF47A7000F053FAFFF7D9FF2F4C4C
:10032000012708B141A011E02846FFF789FF60B11D
:1003300044A001F0D3F94A4800680168C94349065E
:10034000FBD42846FFF792FF03E046A001F0C6F970
:100350002770224D1435207806283BD2DFE800F0C4
:100360003A03262C33354AA001F0B8F950482860EA
:100370004FF4805068604F48C5E9020717481430B1
:10038000FFF748FF68B1291D4BA00EC901F0A6F97F
:100390006868A060A868E060E86866602061022084
:1003A0000FE050A001F09AF905200AE052A0A168E0
:1003B00001F094F9032004E059A0E16801F08EF9FE
:1003C00004202070C7E761A000E064A001F086F976
:1003D0002670C0E7642000F0F3F9BCE7E4000020D9
:1003E0003D3D3D3D20426F6F746C6F6164657220CE
:1003F0005374617274203D3D3D3D0D0A00000000C4
:10040000424C2073746172743A2030782530386C15
:10041000580D0A0000400008415050206164647289
:100420003A2030782530386C580D0A00456E7465D6
:100430007220757064617465206D6F64652E0D0A9D
:10044000000000004170702076616C69642C206AA5
:10045000756D70206E6F772E2E2E0D0A0000000035
:10046000140000204E6F2076616C6964206170700A
:1004700020666F756E642C207374617920696E201C
:10048000626F6F746C6F616465722E0D0A000000FC
:1004900057616974696E67206669726D776172650C
:1004A000206865616465722E2E2E0D0A0000000022
:1004B0004C42574678563412486561646572204F45
:1004C0004B3A2073697A653D256C752C2063726305
:1004D0003D30782530386C582C207665723D256C7F
:1004E000750D0A0048656164657220696E76616CFD
:1004F00069642E0D0A000000526563762064617401
:10050000612073746167652E20657870656374651A
:10051000645F73697A653D256C750D0A0000000003
:10052000566572696679204352432073746167652A
:100530002E2065787065637465645F6372633D3017
:10054000782530386C580D0A0000000050726F6733
:1005500072616D20646F6E652E0D0A00426F6F74BC
:100560006C6F61646572206572726F722E0D0A0085
:10057000FEE70000014800F03BB80000A0000020AA
:10058000014800F035B800005C000020704772B6EA
:10059000FEE7000010B528B301680A6822F00102E6
:1005A0000A6002680021116002685160026891606F
:1005B0000268D1600C4B026801241A441423B2FB78
:1005C000F3F29300094AC0E90F239C405460816212
:1005D000C16201634163816380F8211080F82010BB
:1005E000002010BD012010BDF8FFFDBF000002403B
:1005F0002DE9F05FC16B0C6801680B68D0F840C052
:10060000042202FA0CF2494DDFF824A1494E4A4F68
:10061000DFF828B1DFF828E122422CD05A072AD58A
:100620000A68920603D40A6822F004020A6001688C
:10063000A94201D1042219E0514501D1402215E01F
:10064000B14202D14FF4806210E0B94202D14FF4BE
:1006500080420BE0594502D14FF4802206E07145FB
:1006600002D14FF4800201E04FF080622F49083937
:100670004A60C16A3BE04FF0020808FA0CF818EA39
:10068000040F4FF000094FF0010235D05FEA837884
:1006900032D50B689B0605D40B6823F00A030B6068
:1006A00080F821200168A94201D1022219E05145B8
:1006B00001D1202215E0B14202D14FF4007210E0C6
:1006C000B94202D14FF400520BE0594502D14FF428
:1006D000003206E0714502D14FF4001201E04FF004
:1006E0000072124908394A6080F82090816A002916
:1006F0001AD0BDE8F05F0847082505FA0CF5254239
:1007000012D01B0710D50B6823F00E030B6090F876
:100710004010C36B02FA01F15960826380F8212016
:1007200080F82090016BE2E7BDE8F09F08000240EE
:100730001C000240300002404400024058000240C9
:100740006C00024030B528B308C81349142219447C
:10075000B1FBF2F18900C163104981630221417745
:100760001A6843F6F0718A43D0E900142143D0E9B6
:1007700002452C4321430469214344692143846990
:10078000214311431960002141630122427701771F
:10079000084630BD012030BDF8FFFDBF000002401B
:1007A000064810B54FF0FF31016100220261C160BF
:1007B000C26000F0D3F9002010BD0000001002401C
:1007C00070B5044600F08AF90546601C02D0044862
:1007D0000078044400F082F9401BA042FAD370BDB7
:1007E000000000202DE9F04300233E4F0F2573E069
:1007F00001229A400A406DD023F00304E619D6F88E
:1008000008809C074FEA147C05FA0CF909EA0804F1
:10081000DFF8D480404502D14FF0000816E0DFF841
:10082000CC80404502D14FF001080FE0DFF8C080D6
:10083000404502D14FF0020808E0DFF8B88040459B
:1008400002D14FF0030801E04FF0040808FA0CF859
:10085000A04522D1284CD4F800C02CEA020CC4F8E0
:1008600000C0241DD4F800C02CEA020CC4F800C05B
:10087000214C0C34D4F800C02CEA020CC4F800C09F
:10088000241FD4F800C02CEA020CC4F800C0D6F82B
:1008900008C02CEA090CC6F808C0FF2A01D8064691
:1008A00001E000F104064FEA830401D9A4F1200419
:1008B000D6F800C005FA04F82CEA080C4FF004083A
:1008C00008FA04F84CEA080CC6F800C0C46824EA28
:1008D0000204C46003F1010331FA03F288D1BDE8D8
:1008E000F08300000000014000080140000C0140BE
:1008F0000010014000140140000401402DE9F84FB0
:10090000DFF8B8910024A9F1040B23460F2709F161
:10091000040AABF1040EC9E00125A5402A40AA4211
:100920007DD1674ED1F804C0ACEB0608B44532D097
:1009300014DCBCF1030F3AD009DCBCF1000F2AD063
:10094000BCF1010F1CD0BCF1020F31D11DE0BCF194
:10095000110F17D0BCF1120F2AD119E0B8F5881F7A
:1009600019D006DCB8F5803F15D0B8F5801F1FD12F
:1009700011E0B8F5001F0ED0B8F5041F18D10AE039
:10098000CB6815E0CB681B1D12E0CB6808330FE085
:10099000CB680C330CE08B682BB1012B4FF00803B4
:1009A00003D0456104E0042302E0056100E0002378
:1009B000FF2A01D8064601E000F104064FEA84054B
:1009C00001D9A5F12005D6F8008007FA05FC28EA30
:1009D0000C0803FA05F548EA0508C6F800804D68DA
:1009E000ED0062D5374DAE6946F00106AE61AD69E6
:1009F00024F0030605F001050095334D06EB050CC8
:100A0000DCF80850A607360F07FA06F825EA0805AD
:100A1000DFF8B880404503D14FF0000817E044E00C
:100A2000DFF8AC80404502D14FF001080FE0DFF85D
:100A3000A480404502D14FF0020808E0DFF898801A
:100A4000404502D14FF0030801E04FF0040808FAD6
:100A500006F848EA0508CCF808804D68D9F8006027
:100A6000ED024D4601D5164300E096432E604D68D9
:100A7000DAF80060AD02554601D5164300E0964312
:100A80002E604D68DBF80060AD035D4601D516436E
:100A900000E096432E604D68DEF80060ED03754679
:100AA00001D5164300E096432E60641C0D682A466B
:100AB000E5407FF431AFBDE8F88F00000804014045
:100AC0000000111000100240000001400008014029
:100AD000000C0140001001400014014001488068F2
:100AE000704700000000002002488168027811442D
:100AF0008160704700000020074810B5016841F090
:100B000010010160032000F077F80F2000F006F8D4
:100B100000F026F8002010BD0020024070B50D4DF9
:100B200004464FF47A712878B1FBF0F00A4909685D
:100B3000B1FBF0F000F04CFB48B9102C07D20022BA
:100B40002146501E00F038F800206C6070BD012076
:100B500070BD0000000000200C0000207047000065
:100B60000C4808B5816941F001018161816901F09A
:100B700001010091C16941F08051C161C06900F07B
:100B8000805000900448416821F0E06141F000711C
:100B9000416008BD0010024000000140002809DB50
:100BA00000F01F02012191404009800000F1E02087
:100BB000C0F8001170470000F0B40E4B1B680C46E3
:100BC000C3F30223C3F10705042D00D90425191D21
:100BD000072901D2002300E0DB1E012606FA05F1F9
:100BE000491E214099409E40761E16403143F0BC7C
:100BF00000F084BD0CED00E0064900F00702086833
:100C00004FF6FF03184040EA0220034A10430860F1
:100C1000704700000CED00E00000FA052DE9F047F8
:100C20000F46050061D0434E306800F00700B8421F
:100C300009D2306820F0070038433060306800F097
:100C40000700B84251D128683B4C810712D54007B4
:100C500003D5606840F4E06060602878000703D541
:100C6000606840F4605060606068A96820F0F0003F
:100C7000084360602878C00728D06868012810D031
:100C80002168022810D0890700292EDA616821F036
:100C9000030101436160FFF721FF804641F288397B
:100CA0000DE021688903EFE78901EDE7FFF716FF03
:100CB000A0EB0801494502D90320BDE8F087606830
:100CC000696800F00C00B0EB810FEFD1306800F0E4
:100CD0000700B8420BD9306820F007003843306075
:100CE000306800F00700B84201D00120E5E728781D
:100CF000400705D56068E96820F4E060084360605B
:100D00002878000706D56068296920F4605040EA19
:100D1000C100606000F0A6F86168084AC1F30311E1
:100D2000515CC8400649086006480068FFF7F6FEB7
:100D30000020C2E70020024000100240021C000810
:100D40000C000020040000202DE9F041FFF7C6FE52
:100D5000304C0546206840F00100206005E000BFEF
:100D6000FFF7BCFE401B022843D820688007F7D558
:100D7000206820F0F80040F080002060FFF7AEFE11
:100D800000250646656041F2883704E0FFF7A6FEBD
:100D9000801BB8422DD8606810F00C0FF6D11F49A7
:100DA0001D4808601E480068FFF7B8FE10B101201A
:100DB000BDE8F081FFF792FE0646206820F08070C3
:100DC000206004E0FFF78AFE801B022811D820680B
:100DD0008001F7D46560FFF781FE0646206820F4A5
:100DE0001020206007E000BFFFF778FE801B64281A
:100DF00001D90320DCE720688003F5D4206820F4C3
:100E000080202060606A40F080706062A5600020F1
:100E1000CEE700000010024000127A000C00002013
:100E2000040000200448054900684968044AC1F3E9
:100E30000221515CC84070470C00002000100240A5
:100E4000121C00080448054900684968044AC1F3B7
:100E5000C221515CC84070470C00002000100240C5
:100E6000121C00080E4A51680E4801F00C03042BB6
:100E700011D0082B0FD10C48C1F38343C903C05CC8
:100E80000AD55168084AC1F34041921E515C054A97
:100E90005043B0FBF1F070470449484370470000ED
:100EA0000010024000127A00F21B000800093D0009
:100EB0002DE9F84F040070D02078C04DC00749D00C
:100EC0006868C0F38100012807D06868C0F381001A
:100ED000022809D16868C00306D52868800339D57F
:100EE00060680028E7D035E06068B0F5803F0BD03F
:100EF00010B1B0F5A02F11D0286820F48030286000
:100F0000286820F4802002E0286840F480302860BF
:100F1000606890B1FFF7E2FD06460AE0286840F4F9
:100F200080202860F0E700BFFFF7D8FD801B642811
:100F300073D828688003F7D50CE0FFF7CFFD06468D
:100F400005E000BFFFF7CAFD801B6428F0D82868C1
:100F50008003F7D420789A4E80074FF001094FF0B4
:100F6000000839D5686810F00C0F07D06868C0F326
:100F70008100022809D16868C00306D42868800768
:100F800014D52069012808D110E02069B0B1C6F855
:100F90000090FFF7A3FD074605E00AE1FFF79EFD7D
:100FA000C01B0228C4D828688007F7D52868616963
:100FB00020F0F80040EAC10028600DE0C6F800808B
:100FC000FFF78CFD074604E0FFF788FDC01B0228F1
:100FD00023D828688007F7D4207800072CD57948D3
:100FE000A169D9B1C0F80090FFF778FD074604E089
:100FF000FFF774FDC01B02280FD8686A8007F7D579
:1010000071484FF4FA510068B0FBF1F0009000BF56
:101010000098411E0091FAD20EE080E0C0F80080F6
:10102000FFF75CFD074604E0FFF758FDC01B0228F0
:1010300075D8686A8007F7D42078400760D5E869DA
:101040000027C00008D4E86940F08050E861E869F2
:10105000012700F0805000905C480168C90513D456
:101060000168834641F480710160FFF737FD8246D5
:1010700006E000BFFFF732FDA0EB0A0064284ED85F
:10108000DBF80000C005F5D5E06801280AD008B1FA
:10109000052813D0286A20F001002862286A20F071
:1010A000040002E0286A40F001002862E06841F292
:1010B000883B98B1FFF712FD82460BE0286A40F0AA
:1010C00004002862EEE700BFFFF708FDA0EB0A016D
:1010D00059455AD8286A8007F6D50CE0FFF7FEFC80
:1010E000824605E0FFF7FAFCA0EB0A0159454CD80F
:1010F000286A8007F6D41FB1E86920F08050E861C3
:10110000E06988B36968C1F38101022944D00228EB
:10111000C6F8608004D0FFF7E1FC044638E034E014
:10112000FFF7DCFC074604E0FFF7D8FCC01B0228F1
:101130002BD828688001F7D4206AB0F5803F05D10C
:101140006868A16820F4003008436860D4E90801A9
:101150000843696821F4741108436860C6F8609018
:10116000FFF7BCFC044606E025E000BFFFF7B6FC35
:10117000001B022809D828688001F7D51BE000BFB2
:10118000FFF7ACFC001B022802D90320BDE8F88F52
:1011900028688001F4D40EE00128F7D06868226A3C
:1011A00000F48031914204D1616A00F470108842E9
:1011B00001D00120EAE70020E8E70000001002402B
:1011C00000004242800442420C00002000700040B7
:1011D00010B5401EB0F1807F01D3012010BD4FF04B
:1011E000E02460610F21601700F088FA0020A06100
:1011F00007202061002010BD10B5040015D0242068
:1012000084F841002068C16821F40051C160204683
:1012100000F040F80020606484F8410084F8420047
:1012200044F8300F6060207410BD012010BD70B50F
:10123000040004D094F84100002510B106E001201C
:1012400070BD84F84050204600F044F8242084F813
:1012500041002068C16821F40051C160204600F0BF
:10126000A7F92068016921F4904101612068416972
:1012700021F02A0141612068C16841F40051C16038
:101280006564202084F8410084F8420065630020F2
:1012900070BD000010B5044600680B49884211D1AA
:1012A0000A48816921F4804181614FF4C061084896
:1012B000FFF798FAE06BFFF76DF9A06BBDE81040FF
:1012C000FFF768B910BD000000380140001002406F
:1012D00000080140F0B585B0002406460094019452
:1012E000029403940068294988424CD128488169B6
:1012F00041F480418161816901F4804104918169F7
:1013000041F0040181618069224D00F004000490E5
:101310004FF4007000900220019003200390694672
:101320002846FFF7EBFA2815CDE900046946284660
:101330000294FFF7E3FA194D17488027C5E9000426
:10134000C5E902472C616C61AC612846EC61FFF78E
:10135000F9F908B1FFF71BF9F5636E620F4D0E48FE
:101360004435143801C5102091C50C4845F8104982
:1013700044306C61AC61EC61FFF7E4F908B1FFF750
:1013800006F9B5636E6205B0F0BD0000003801409B
:101390000010024000080140580002405C0000209C
:1013A0002DE9F843044690F84100984616460D464C
:1013B000202802D00220BDE8F88385B17EB100204C
:1013C0006064212084F84100FFF788FBA6848146F1
:1013D000E684A0682027B0F5805F02D003E00120FA
:1013E000E9E7206910B12E4600250EE000260CE04A
:1013F0008021204600F038F9A8B9C6B116F8010BD3
:1014000021684860E08C401EE084E08C4B464FF041
:101410000002CDF800800028EAD14FF040012046BC
:1014200000F022F940B184F841700320C3E735F899
:10143000020BC0F30800E3E784F841700020BAE72C
:10144000FEE700000D4808B5416941F00101416126
:101450004069002200F00100009005210E20FFF7F6
:10146000ABFB0E20FFF79AFB002205210F20FFF7B0
:10147000A3FBBDE808400F20FFF790BB001002401F
:101480000D4808B5816941F010018161816901F061
:1014900010010091816941F020018161816901F0B1
:1014A00020010091816941F004018161806900F0AF
:1014B0000400009008BD0000001002400C4810B568
:1014C0000A4901604FF4E1314160002181600C2242
:1014D000C160C0E904128161C161FFF7A8FE002864
:1014E00003D0BDE81040FFF752B810BD00380140EE
:1014F00014000020FEE7FEE770477047FFF7F4BADC
:1015000030B58FB028216846FEF725FE14210AA8C1
:10151000FEF721FE01210804CDE900100024029409
:1015200002250491CDE907504FF4E0100990684678
:10153000FFF7BEFC08B172B6FEE70F20CDE90A0541
:101540004FF48060CDE90C4002210AA80E94FFF709
:1015500065FB002801D072B6FEE70FB030BD7047C2
:1015600001680C3151E8002F22F4907241E8002309
:10157000002BF5D10168143151E8002F22F001024F
:1015800041E80023002BF5D1016B012909D1016845
:101590000C3151E8002F22F0100241E80023002B0B
:1015A000F5D1202180F8421000210163704700002E
:1015B00070B5044600680169E26821F440511143A6
:1015C00001612169A0680843616908432168CA680C
:1015D00041F20C639A430243CA6020684169A269E0
:1015E00021F44071114341611E492068884202D1B3
:1015F000FFF728FC01E0FFF715FC00EBC00101EB51
:101600000012606864218000B2FBF0F3B3FBF1F3D9
:101610006FF018067343B2FBF0F5B2FBF0F605EB82
:101620008305322303EB0515B5FBF1F5B6FBF1F6A7
:1016300005F0F00505EB0615B2FBF0F6B2FBF0F095
:10164000B0FBF1F06FF01802504306EB800003EBA3
:101650000010B0FBF1F0216800F00F002844886012
:1016600070BD0000003801402DE9F8439846174648
:101670000D460446089E24E0701C22D0FFF72EFA87
:10168000A0EB0800B0421AD8CEB12068C168490763
:1016900017D5802D15D0402D13D00168C9430907F7
:1016A0000FD401680025406800902046FFF758FFDE
:1016B0000820606484F840500120BDE8F8830320CE
:1016C000FBE72068006835EA000004D00020B8423B
:1016D000D2D00020F1E70120F9E7FEE70FB4054B77
:1016E00010B503A9044A029800F028F810BC5DF870
:1016F00014FB0000951B0008100000200907090ECC
:10170000002804DB00F1E02080F80014704700F0AE
:101710000F0000F1E02080F8141D704702E008C8B7
:10172000121F08C1002AFAD170477047002001E05B
:1017300001C1121F002AFBD1704700002DE9FF4FA5
:101740008DB00F460546002606E025280BD0DDE9C2
:101750000F1290476D1C761C28780028F5D111B027
:101760003046BDE8F08F0024A246A1460122E94997
:1017700000E0044315F8013F203B02FA03F0084261
:10178000F7D128782A2810D06FF02F022878A0F1FE
:101790003001092914D80AEB8A0102EB410144F017
:1017A000020400EB010A6D1CF0E701CF5FEA000ABA
:1017B00003D544F40054CAF1000A44F002046D1C3D
:1017C00028782E2817D115F8010F44F004042A2890
:1017D0000ED06FF02F022878A0F1300109290AD825
:1017E00009EB890102EB410100EB01096D1CF2E7F5
:1017F00057F8049B6D1C28786C280FD006DC4C2809
:1018000017D068280DD06A2814D104E0742810D0AD
:101810007A280FD10DE044F400140AE044F4801457
:1018200001E044F440146978814202D104F5801447
:101830006D1C6D1C28786E281ED00CDC632830D0FF
:1018400004DC00288BD0582811D19FE0642867D091
:1018500069280CD164E073282DD004DC6F2872D085
:10186000702804D194E075286ED078286DD0DDE919
:101870000F129047761C4BE1C4F30250022806D0A9
:10188000032809D0042801CF09D0066040E101CF28
:10189000F117C0E900613BE101CF068038E1067035
:1018A00036E117F8040B8DF8000000208DF80100D8
:1018B000EB46012003E057F804BB4FF0FF3061070F
:1018C0004FF0000102D40DE008F1010188464945BE
:1018D0000FDA8045F8DB1BF808100029F4D108E086
:1018E00008F1010188468142FADB1BF80810002943
:1018F000F6D1DDE90F23AAEB08008146214600F06E
:1019000031F9304400EB080604E0DDE90F121BF862
:10191000010B9047B8F10108F7D221464846F2E0A2
:101920000A21C4F302524FF0000B0891022A04D09E
:1019300001CFC117032A09D00AE0FF1D27F00707CE
:10194000F7E8020108E02CE01EE01FE000B2C1173A
:10195000042A01D140B2C117021E71F1000206DA59
:101960000023D0EB030063EB01012D2202E02205EE
:1019700004D52B228DF82420012203E0E20701D0B8
:101980002022F7E7904653E00A210BE0102109E0FE
:1019900010214FF0000B44F004044FF008090891A7
:1019A00003E008214FF0000B0891C4F30252022A11
:1019B00004D001CF0021032A06D006E0FF1D27F046
:1019C0000707F7E8020103E080B2042A00D1C0B2A1
:1019D0004FF0000822072BD52A78702A07D0DDF8AF
:1019E00020C08CF0100C5CEA0B0C05D00EE04022FD
:1019F0008DF82420012208E050EA010306D03023AC
:101A00008DF824308DF8252002229046089B83F023
:101A1000080353EA0B030BD150EA010201D162071C
:101A200006D530228DF824204FF00108A9F10109D4
:101A30002A78582A04D038A20B9208AA0A920BE0FE
:101A40003AA2F9E75B46089AFEF790FB0B9B9B5C7A
:101A50000A9A521E0A92137050EA0102F2D10A98B1
:101A6000ADEB000000F1200B600702D524F48034B8
:101A700001E04FF00109D94502DDA9EB0B0000E0C0
:101A8000002000EB0B0141440890AAEB010AE0039F
:101A900006D4DDE90F232146504600F063F80644E2
:101AA0004FF0000908E009A911F80900DDE90F125B
:101AB000904709F10109761CC145F4DBE0030CD520
:101AC000DDE90F232146504600F04CF8064404E0BF
:101AD000DDE90F1230209047761C0899481E0890C7
:101AE0000029F5DC08E00A980A990078491C0A9157
:101AF000DDE90F129047761CBBF10001ABF1010B41
:101B0000F1DC21465046DDE90F2300F019F80644C8
:101B10006D1C21E609280100303132333435363767
:101B20003839616263646566000000003031323329
:101B300034353637383941424344454600000000C9
:101B40002DE9F041044600251E461746880404D4BA
:101B500005E039462020B0476D1C641EF9D52846A3
:101B6000BDE8F0812DE9F041044600251E4690466F
:101B7000C80301D5302700E02027880404D505E0FC
:101B800041463846B0476D1C641EF9D52846BDE86D
:101B9000F081000013B54FF0FF330122694602487F
:101BA000FFF7FEFB00981CBD14000020FEF7A4FF09
:101BB000FFF7A6FCFFF764FCFFF744FCFFF77EFC91
:101BC000FEF792FB4FF47A742046FEF7F9FD02A06F
:101BD000FFF784FDF8E70000426F6F746C6F61647B
:101BE00065722069646C652E2E2E0D0A00000000BF
:101BF000010202030405060708090A0B0C0D0E0F6B
:101C0000101000000000000000000102030406079D
:101C10000809000000000102030400003C1C000849
:101C200000000020140000001C170008501C0008D1
:101C300014000020F40400002C170008010000002C
:101C4000100000000000000000127A0000000000F8
:04000005080000ED02
:00000001FF
